:100000000C942A000C9447000C9447000C94470071
:100010000C9447000C9447000C9447000C94470044
:100020000C9447000C9447000C9447000C94AB01CF
:100030000C9447000C9447000C9447000C94470024
:100040000C943A040C9447000C9447000C9447001D
:100050000C94470011241FBECFE5D8E0DEBFCDBF12
:1000600010E0A0E6B0E0E6EFFCE002C005900D92E3
:10007000A83CB107D9F710E0A8ECB0E001C01D9290
:10008000AB3DB107E1F70E94C2000C9479060C94D5
:1000900000000E94400580E690E00E94FD0481E09F
:1000A00065E00E9463058CE690E00E94FD0480E11B
:1000B00097E228EC30E0F9013197F1F70197D9F791
:1000C0000E94400583E790E00E94FD0480E067E025
:1000D0000E9463058AE790E00E94FD0481E060E0F1
:1000E0000E94630583E890E00E94FD0408950E9449
:1000F000AA05823069F08330E9F1813009F041C00E
:1001000081E291E00E94260480E00E94110408959B
:100110000E94400589E890E00E94FD0480E067E0CD
:100120000E9463058EE890E00E94FD0481E060E09B
:100130000E94630584E990E00E94FD040E94AA05E4
:10014000813031F480E062E041E00E94FD020DC0A8
:10015000823049F48093C80084E690E06DE671E057
:100160000E948F0102C0833049F70E9440050E941F
:10017000490008958BED90E00E94260481E00E94E2
:10018000110408950E94FC010E94F9030E946E056B
:100190000E9488010E94F00580E064E041E00E9436
:1001A0008A0280E063E041E00E948A020E944900E6
:1001B0000E947700FDCF80E063E041E00E94FD02F5
:1001C0000E9418049093CA008093C9002091C9002E
:1001D0003091CA0084EF91E0AC01249FC001259FBB
:1001E000900D349F900D1124892F9927869586951F
:1001F0009093CA008093C9000E94400582EA90E073
:100200000E94FD046091C9007091CA0080E090E0F6
:100210000E94980480E29EE428EC30E0F9013197D6
:10022000F1F70197D9F781E08093C80088E59BE159
:100230006DE671E00E948F010E9440050E94490016
:1002400008950E9440050E9418049093CA0080936C
:10025000C9002091C9003091CA0084EF91E0AC013F
:10026000249FC001259F900D349F900D1124892F4C
:100270009927869586959093CA008093C9008FEA46
:1002800090E00E94FD046091C9007091CA0080E076
:1002900090E00E9498048091C9009091CA004F9705
:1002A00028F080E064E041E00E94FD0283E080935A
:1002B000C80080E29EE428EC30E0F9013197F1F7C4
:1002C0000197D9F788E59BE16DE671E00E948F0107
:1002D0000E9440050E94490008958091C800823024
:1002E00039F0833069F0813091F480E063E002C03E
:1002F00080E062E040E00E94FD020E94A7010895B4
:1003000080E064E040E00E94FD020E94A7010895A1
:1003100013BE89B7816089BF089582BF0895A0E0A8
:10032000B0E08093D1009093D200A093D300B0931B
:10033000D4007093D0006093CF0083B7887F826031
:1003400083BF089583B7887F826083BF089583B792
:10035000887F83BF08951F920F920FB60F921124CA
:100360002F933F934F935F936F937F938F939F93BD
:10037000AF93BF93EF93FF938091CB009091CC000C
:10038000A091CD00B091CE000196A11DB11D80932A
:10039000CB009093CC00A093CD00B093CE002091E1
:1003A000D1003091D2004091D3005091D4008217F7
:1003B0009307A407B50779F4E091CF00F091D0003E
:1003C000309749F009951092CB001092CC00109212
:1003D000CD001092CE00FF91EF91BF91AF919F9110
:1003E0008F917F916F915F914F913F912F910F90DE
:1003F0000FBE0F901F9018958FB780688FBF08951C
:100400008FB78F778FBF0895813041F0813018F01A
:10041000823059F407C08BB78F7B02C08BB78F77C0
:100420008BBF08958BB78F7D8BBF0895813029F1E5
:10043000813020F0823009F04DC03EC0613071F053
:10044000613030F0623069F0633009F043C00FC0B2
:1004500085B78E7F85BF85B782602CC085B78260E7
:1004600008C085B78D7F85BF85B78E7F23C085B7D0
:100470008D7F85BF85B781601DC0613051F06130CF
:1004800028F0623061F0633029F50FC085B78B7FAB
:1004900002C085B7846085BF85B788600BC085B70B
:1004A0008B7F85BF85B7877F05C085B7877F85BF71
:1004B00085B7846085BF0895623060F4662319F0C3
:1004C000613041F404C084B78F7B84BF089584B742
:1004D000806484BF0895813059F0813018F08230F3
:1004E000C1F40FC08BB780648BBF83E062E005C0AE
:1004F0008BB780688BBF83E063E040E00E948A0294
:1005000008958BB780628BBF81E062E040E00E947B
:100510008A0208954130B1F5813099F0813030F090
:100520008230D1F0833009F067C021C02AB381E066
:1005300090E002C0880F991F6A95E2F7282B2ABB2A
:10054000089527B381E090E002C0880F991F6A9553
:10055000E2F7282B27BB089524B381E090E002C086
:10056000880F991F6A95E2F7282B24BB089521B3C1
:1005700081E090E002C0880F991F6A95E2F7282B6E
:1005800021BB08954423C1F5813099F0813028F0D2
:100590008230D9F0833081F524C02AB381E090E025
:1005A00002C0880F991F6A95E2F7809582238ABB63
:1005B000089527B381E090E002C0880F991F6A95E3
:1005C000E2F78095822387BB089524B381E090E011
:1005D00002C0880F991F6A95E2F78095822384BB39
:1005E000089521B381E090E002C0880F991F6A95B9
:1005F000E2F78095822381BB08954130B1F58130C7
:1006000099F0813030F08230D1F0833009F067C04A
:1006100021C02BB381E090E002C0880F991F6A953A
:10062000E2F7282B2BBB089528B381E090E002C0AD
:10063000880F991F6A95E2F7282B28BB089525B3E8
:1006400081E090E002C0880F991F6A95E2F7282B9D
:1006500025BB089522B381E090E002C0880F991F66
:100660006A95E2F7282B22BB08954423C1F5813017
:1006700099F0813028F08230D9F0833081F524C0A0
:100680002BB381E090E002C0880F991F6A95E2F7D2
:10069000809582238BBB089528B381E090E002C04F
:1006A000880F991F6A95E2F78095822388BB089589
:1006B00025B381E090E002C0880F991F6A95E2F7A8
:1006C0008095822385BB089522B381E090E002C02B
:1006D000880F991F6A95E2F78095822382BB08955F
:1006E000813091F0813028F08230C9F0833061F59B
:1006F00021C02BB381E090E002C0880F991F6A955A
:10070000E2F728272BBB089528B381E090E002C0D0
:10071000880F991F6A95E2F7282728BB089525B30B
:1007200081E090E002C0880F991F6A95E2F72827C0
:1007300025BB089522B381E090E002C0880F991F85
:100740006A95E2F7282722BB0895813051F0813065
:1007500030F0823041F0833079F080E0089589B341
:1007600003C086B301C083B390E002C0959587951E
:100770006A95E2F78170089580B390E002C0959584
:1007800087956A95E2F781700895813049F081304C
:1007900028F0823039F0833041F406C06ABB0895F6
:1007A00067BB089564BB089561BB0895813049F02B
:1007B000813028F0823039F0833041F406C06BBBC1
:1007C000089568BB089565BB089562BB08958130A4
:1007D00051F0813030F0823041F0833041F080E0E0
:1007E00008958BB3089588B3089585B3089582B3AF
:1007F00008953F983E9A3D9886B1887F836086B978
:100800003598339A379A089597B18770907E892BDF
:1008100087B9369A349BFECF349A24B135B1C901D9
:10082000089597B18770907E892B87B9369A08957D
:1008300024B135B1C901089586B182958F7080FFCA
:1008400002C01092B6008091B60008959093D8002F
:100850008093D70008955093D8004093D7007093A9
:10086000DA006093D90097B18770907E892B87B9A1
:10087000369A08951F920F920FB60F9211242F935C
:100880003F934F935F936F937F938F939F93AF9318
:10089000BF93EF93FF93E091D900F091DA00309786
:1008A00021F084B195B191838083E091D700F091DC
:1008B000D800309709F00995FF91EF91BF91AF9162
:1008C0009F918F917F916F915F914F913F912F9168
:1008D0000F900FBE0F901F9018950F931F93182F16
:1008E00081E060E041E00E94FD0281E061E040E0E3
:1008F0000E94FD0283E0612F0E94D60381E062E046
:1009000041E00E94FD0200ED17E0C8010197F1F7F8
:1009100081E062E040E00E94FD02C8010197F1F72A
:100920001F910F910895883010F40E946D0408956E
:10093000AF92BF92CF92DF92EF92FF920F931F93ED
:10094000DF93CF93CDB7DEB72C970FB6F894DEBF09
:100950000FBECDBF6B017C01FE0131968AE0DF0145
:100960001D928A95E9F710E05F011DC0F501E10FC6
:10097000F11DFC87EB87C701B6012AE030E040E0BB
:1009800050E00E943C06AB85BC856C931F5FC7019D
:10099000B6012AE030E040E050E00E943C06C90188
:1009A000DA016C017D011C141D041E041F04F4F205
:1009B000012F0150E02EFF24E7FCF094EA0CFB1C11
:1009C00009C0F7018081805D0E946D040150089488
:1009D000E108F10807FFF5CF2C960FB6F894DEBFBB
:1009E0000FBECDBFCF91DF911F910F91FF90EF9080
:1009F000DF90CF90BF90AF9008951F93CF93DF9378
:100A0000EC0110E003C00E946D041F5FFE01E10FC6
:100A1000F11D80818823B9F7DF91CF911F9108954F
:100A20000F931F93182F81E060E040E00E94FD02C9
:100A300081E061E040E00E94FD0283E0612F0E94BE
:100A4000D60381E062E041E00E94FD0200ED17E084
:100A5000C8010197F1F781E062E040E00E94FD02E9
:100A6000C8010197F1F71F910F910895803119F492
:100A70000E9410050895843111F40E941005089514
:100A800081E00E94100508950F931F93CF93DF9389
:100A90008B01880F880F880F805C0E941005C0E0D2
:100AA000D0E0F801EC0FFD1F80810E946D042196BB
:100AB000C830D105B1F780E80E941005DF91CF91D1
:100AC0001F910F910895823040F4603130F481110C
:100AD000605C862F80680E94100508950F931F9315
:100AE00083E06FEF0E94C50381E060E041E00E9477
:100AF0008A0281E061E041E00E948A0281E062E0D6
:100B000041E00E948A0284EF91E028EC30E0F90194
:100B10003197F1F70197D9F788E30E94100500EDAE
:100B200017E0C8010197F1F78CE00E941005C80199
:100B30000197F1F781E00E94100580E797E10197A6
:100B4000F1F786E00E941005C8010197F1F71F91A7
:100B50000F910895AF92BF92DF92EF92FF920F93A1
:100B60001F93CF93DF93EE24C0E0D0E090E2A92E54
:100B70009EE4B92EDC2E82E06C2F40E00E94FD0244
:100B80008E0109541F4F84E0F82E82E06F2D0E94E1
:100B9000A503882311F4F801E08082E06F2D0E9404
:100BA000A5038823D1F3C5010197F1F7F3940C5FF6
:100BB0001F4FF8E0FF1649F782E06D2D41E00E94DB
:100BC000FD022196C430D105A9F68E2DDF91CF917B
:100BD0001F910F91FF90EF90DF90BF90AF9008951D
:100BE00082E06FE00E94C50382E06FEF0E94D603AF
:100BF000089580E060E040E00E94FD0280E061E056
:100C000040E00E94FD02089580E060E040E00E9424
:100C1000FD0280E061E041E00E94FD02089580E075
:100C200060E041E00E94FD0280E061E040E00E945F
:100C3000FD02089580E060E041E00E948A0280E0C9
:100C400061E041E00E948A020895813049F08130DC
:100C500028F0823039F0833071F409C080E003C09D
:100C600081E001C082E041E00E948A02089583E0B1
:100C700041E00E948A02089597FB092E05260ED0B6
:100C800057FD04D014D00AD0001C38F4509540957C
:100C9000309521953F4F4F4F5F4F0895F6F7909550
:100CA0008095709561957F4F8F4F9F4F0895A1E27A
:100CB0001A2EAA1BBB1BFD010DC0AA1FBB1FEE1FD6
:100CC000FF1FA217B307E407F50720F0A21BB30B21
:100CD000E40BF50B661F771F881F991F1A9469F79D
:100CE00060957095809590959B01AC01BD01CF01F9
:060CF0000895F894FFCF07
:100CF600706C6561732063686F7365006F707469EB
:100D06006F6E00313A74656D7000323A44435F6D20
:100D16006F7400333A4C445200313A4F4E00323A27
:100D26004F464600333A6261636B20746F206D69EB
:100D36006E004C44525F56616C7565203D20005430
:100D4600656D70203D00010102032B0405062D0789
:080D560008092A25003D2F00C9
:00000001FF
